:100000000C942A000C943C000C943C000C943C0092
:100010000C943C000C943C000C943C000C943C0070
:100020000C943C000C943C000C94E6030C94AF033D
:100030000C943C000C943C000C943C000C943C0050
:100040000C943C000C943C000C943C000C943C0040
:100050000C943C0011241FBECFE5D8E0DEBFCDBF1D
:1000600020E0A0E6B0E001C01D92A736B207E1F79C
:100070000E9438020C9480040C940000CF93DF930C
:100080001F92CDB7DEB789838981882F90E00097D2
:1000900019F0019789F020C04FEF60E183E00E94E2
:1000A00010014FEF64E083E00E9410014FEF68E021
:1000B00083E00E94100110C04FEF60E283E00E94D5
:1000C00010014FEF60E483E00E9410014FEF60E801
:1000D00083E00E941001000000000F90DF91CF919B
:1000E0000895CF93DF9300D0CDB7DEB789836A83BD
:1000F0008981882F90E0009721F0019709F43EC094
:100100007AC08A81882F90E081309105B1F08230E9
:10011000910519F1892B09F06EC040E060E183E0A0
:100120000E94A40140E064E083E00E94A40140E05A
:1001300068E083E00E94A40120C04FEF60E183E00B
:100140000E94A40140E064E083E00E94A4014FEF1C
:1001500068E083E00E94A40110C04FEF60E183E0FB
:100160000E94A4014FEF64E083E00E94A40140E0FC
:1001700068E083E00E94A40100003DC08A81882FCE
:1001800090E081309105B1F08230910519F1892B11
:1001900009F030C040E060E283E00E94A40140E04A
:1001A00060E483E00E94A40140E060E883E00E94F4
:1001B000A40120C04FEF60E283E00E94A40140E070
:1001C00060E483E00E94A4014FEF60E883E00E94B6
:1001D000A40110C04FEF60E283E00E94A4014FEF42
:1001E00060E483E00E94A40140E060E883E00E94B4
:1001F000A4010000000000000F900F90DF91CF914C
:100200000895CF93DF931F92CDB7DEB7898361E066
:1002100089810E94290300000F90DF91CF910895FA
:10022000CF93DF9300D01F92CDB7DEB789836A8367
:100230004B838B81882309F042C08A8180958A8311
:100240008981882F90E081309105B9F08230910545
:100250001CF4892B39F071C082309105C9F00397E5
:1002600011F16BC08AE390E02AE330E0F9013081BC
:100270002A812323FC01208360C087E390E027E3E9
:1002800030E0F90130812A812323FC01208355C00D
:1002900084E390E024E330E0F90130812A812323D4
:1002A000FC0120834AC081E390E021E330E0F901C2
:1002B00030812A812323FC01208300003EC08981F4
:1002C000882F90E081309105B9F0823091051CF4BF
:1002D000892B39F032C082309105C9F0039711F1B2
:1002E0002CC08AE390E02AE330E0F90130812A81D2
:1002F000232BFC01208321C087E390E027E330E03B
:10030000F90130812A81232BFC01208316C084E36C
:1003100090E024E330E0F90130812A81232BFC01B5
:1003200020830BC081E390E021E330E0F9013081CC
:100330002A81232BFC012083000000000F900F90E6
:100340000F90DF91CF910895CF93DF9300D01F924C
:10035000CDB7DEB789836A834B838B81882309F00D
:1003600042C08A8180958A838981882F90E081307C
:100370009105B9F0823091051CF4892B39F071C0D8
:1003800082309105C9F0039711F16BC08BE390E0C7
:100390002BE330E0F90130812A812323FC01208303
:1003A00060C088E390E028E330E0F90130812A81E1
:1003B0002323FC01208355C085E390E025E330E052
:1003C000F90130812A812323FC0120834AC082E382
:1003D00090E022E330E0F90130812A812323FC01FF
:1003E000208300003EC08981882F90E081309105F4
:1003F000B9F0823091051CF4892B39F032C082307B
:100400009105C9F0039711F12CC08BE390E02BE329
:1004100030E0F90130812A81232BFC01208321C0A7
:1004200088E390E028E330E0F90130812A81232B32
:10043000FC01208316C085E390E025E330E0F9015C
:1004400030812A81232BFC0120830BC082E390E0C2
:1004500022E330E0F90130812A81232BFC01208343
:10046000000000000F900F900F90DF91CF91089542
:10047000CF93DF93CDB7DEB70E94430280E090E0D8
:10048000DF91CF910895CF93DF931F92CDB7DEB761
:1004900080E00E943E0081E00E943E0061E080E03A
:1004A0000E94710061E081E00E94710081E0898317
:1004B0000CC089810E9401016AE570E080E090E053
:1004C0000E949F0289818F5F89838981853688F3A5
:1004D00084E689830CC089810E9401016AE570E08D
:1004E00080E090E00E949F02898181508983898108
:1004F000882389F760E080E00E94710060E081E07D
:100500000E9471000E94190361E080E00E94710066
:1005100062E081E00E9471006EE571E080E090E0B1
:100520000E949F0260E080E00E94710060E081E034
:100530000E94710000000F90DF91CF910895CF933A
:10054000DF9300D000D000D0CDB7DEB76B837C83C3
:100550008D839E8319C088E691E09A83898305C0C4
:1005600089819A8101979A83898389819A81892BCC
:10057000B9F78B819C81AD81BE810197A109B10939
:100580008B839C83AD83BE838B819C81AD81BE8137
:10059000892B8A2B8B2BF9F6000026960FB6F89440
:1005A000DEBF0FBECDBFDF91CF910895EF920F93C5
:1005B000CF93DF9300D000D000D0CDB7DEB78983D2
:1005C0006A834B832C830D83EE8289818093600044
:1005D0008A81809361008B81809362008C818093FB
:1005E00063008D81809364008E818093650000009C
:1005F00026960FB6F894DEBF0FBECDBFDF91CF9128
:100600000F91EF900895CF93DF93CDB7DEB783E5D9
:1006100090E023E530E0F9013081409160002091C5
:100620006200242B232BFC0120830000DF91CF915B
:100630000895CF93DF93CDB7DEB783E590E0FC015B
:10064000808183E590E0FC0110820000DF91CF9172
:100650000895EF920F93CF93DF93CDB7DEB72A972C
:100660000FB6F894DEBF0FBECDBF89876A878A8533
:10067000282F30E040E050E08AEF90E0A0E0B0E0CA
:10068000BC01CD010E942B04DA01C90189839A8340
:10069000AB83BC838985882F90E024E630E0281B5B
:1006A000390B8981882F90E0289FA001299F500D48
:1006B000389F500D112424E630E0CA01B9010E9490
:1006C0001704CB01092E000CAA0BBB0B8D839E8354
:1006D000AF83B88789818195809366004FEF60E38F
:1006E00083E00E94100140E060E383E00E94A401E7
:1006F000789489E590E029E530E0F9013081209196
:100700006500232BFC0120839D8180916600980F5A
:10071000809166000F2EF3E0EF2EF02D092F282F89
:1007200045E060E280E00E94D60282E590E0209100
:100730006300FC0120838CE590E020916400FC01C3
:1007400020830E94030300002A960FB6F894DEBFB0
:100750000FBECDBFDF91CF910F91EF9008957894A8
:100760001F920F9200905F000F9211242F933F93DE
:100770004F935F936F937F938F939F93AF93BF93A9
:10078000EF93FF93CF93DF93CDB7DEB740E060E305
:1007900083E00E94A40182E590E020916600FC01C4
:1007A00020830000DF91CF91FF91EF91BF91AF9136
:1007B0009F918F917F916F915F914F913F912F9179
:1007C0000F9000925F000F901F90189578941F92E1
:1007D0000F9200905F000F9211242F933F934F933D
:1007E0005F936F937F938F939F93AF93BF93EF9399
:1007F000FF93CF93DF93CDB7DEB74FEF60E383E096
:100800000E94A4010000DF91CF91FF91EF91BF9171
:10081000AF919F918F917F916F915F914F913F9198
:100820002F910F9000925F000F901F90189597FBEB
:10083000072E16F4009407D077FD09D00E944A04D1
:1008400007FC05D03EF4909581959F4F08957095D3
:1008500061957F4F0895052E97FB1EF400940E942A
:10086000420457FD07D00E945E0407FC03D04EF4FB
:100870000C94420450954095309521953F4F4F4F31
:100880005F4F089590958095709561957F4F8F4F3C
:100890009F4F0895AA1BBB1B51E107C0AA1FBB1F96
:1008A000A617B70710F0A61BB70B881F991F5A95FC
:1008B000A9F780959095BC01CD010895A1E21A2E6B
:1008C000AA1BBB1BFD010DC0AA1FBB1FEE1FFF1FF4
:1008D000A217B307E407F50720F0A21BB30BE40B44
:1008E000F50B661F771F881F991F1A9469F760958B
:1008F0007095809590959B01AC01BD01CF01089545
:04090000F894FFCF99
:00000001FF
