:100000000C942A000C9447000C9447000C947F0138
:100010000C9447000C9414030C9447000C94470074
:100020000C9447000C9447000C94E3020C94AC022F
:100030000C9447000C9447000C9447000C94470024
:100040000C9447000C9447000C9447000C94470014
:100050000C94470011241FBECFE5D8E0DEBFCDBF12
:1000600010E0A0E6B0E0E2E4F7E002C005900D92F7
:10007000A836B107D9F720E0A8E6B0E001C01D928C
:10008000AB37B207E1F70E944B010C949F030C942D
:100090000000CF93DF9300D01F92CDB7DEB78983E6
:1000A0006A834B838B81882309F042C08A818095C3
:1000B0008A838981882F90E081309105B9F0823060
:1000C00091051CF4892B39F071C082309105C9F07B
:1000D000039711F16BC08BE390E02BE330E0F90163
:1000E00030812A812323FC01208360C088E390E0D3
:1000F00028E330E0F90130812A812323FC012083A9
:1001000055C085E390E025E330E0F90130812A8194
:100110002323FC0120834AC082E390E022E330E005
:10012000F90130812A812323FC01208300003EC095
:100130008981882F90E081309105B9F08230910556
:100140001CF4892B39F032C082309105C9F0039735
:1001500011F12CC08BE390E02BE330E0F90130810A
:100160002A81232BFC01208321C088E390E028E32F
:1001700030E0F90130812A81232BFC01208316C055
:1001800085E390E025E330E0F90130812A81232BDB
:10019000FC0120830BC082E390E022E330E0F90110
:1001A00030812A81232BFC012083000000000F9066
:1001B0000F900F90DF91CF910895CF93DF9300D0F0
:1001C000CDB7DEB789836A838981882F90E081303B
:1001D000910591F0823091051CF4892B39F01EC0F5
:1001E0008230910579F0039799F018C08AE390E086
:1001F0002A81FC01208312C087E390E02A81FC0160
:1002000020830CC084E390E02A81FC01208306C097
:1002100081E390E02A81FC012083000000000F9020
:100220000F90DF91CF910895CF93DF9300D0CDB79A
:10023000DEB789836A838981882F90E081309105B8
:1002400091F0823091051CF4892B39F01EC0823068
:10025000910579F0039799F018C08BE390E02A811B
:10026000FC01208312C088E390E02A81FC012083F6
:100270000CC085E390E02A81FC01208306C082E364
:1002800090E02A81FC012083000000000F900F9075
:10029000DF91CF910895CF93DF93CDB7DEB70E9462
:1002A000560180E090E0DF91CF910895CF93DF93E6
:1002B0001F92CDB7DEB719820E9435036FEF81E040
:1002C0000E94DD0060E081E00E9414010E94720340
:1002D0008983898180538295807F682F81E00E9485
:1002E000140189810E94840364EF71E080E090E052
:1002F0000E94160260E081E00E941401E7CF78942A
:100300001F920F9200905F000F9211242F933F9342
:100310004F935F936F937F938F939F93AF93BF930D
:10032000EF93FF93CF93DF93CDB7DEB784E590E0F3
:10033000FC018081882F90E080749927892B39F106
:100340000E9486028BE590E02BE530E0F9012081E8
:100350002F7DFC01208384E590E024E530E0F90165
:1003600020812F7BFC0120838AE590E02AE530E0A4
:10037000F90120812062FC0120838BE590E02BE5D0
:1003800030E0F90120812062FC0120833AC084E53D
:1003900090E0FC018081882F90E080749927892B60
:1003A00081F50E949C020E947B028093690080E09C
:1003B0000E944D028BE590E02BE530E0F9012081B1
:1003C0002F7DFC01208384E590E024E530E0F901F5
:1003D00020812064FC0120838AE590E02AE530E05A
:1003E000F90120812062FC0120838BE590E02BE560
:1003F00030E0F90120812062FC0120838FEF80939F
:1004000068000000DF91CF91FF91EF91BF91AF9114
:100410009F918F917F916F915F914F913F912F911C
:100420000F9000925F000F901F901895CF93DF936D
:1004300000D000D000D0CDB7DEB76B837C838D8336
:100440009E8319C088E691E09A83898305C08981DB
:100450009A8101979A83898389819A81892BB9F737
:100460008B819C81AD81BE810197A109B1098B83EC
:100470009C83AD83BE838B819C81AD81BE81892BA2
:100480008A2B8B2BF9F6000026960FB6F894DEBF68
:100490000FBECDBFDF91CF910895CF93DF931F9211
:1004A000CDB7DEB7898380916A00882F90E00097EE
:1004B00019F0089761F01AC084E490E024E430E079
:1004C000F90130812981232BFC0120830FC084E4B2
:1004D00090E0FC01108283E490E023E430E0F90135
:1004E00030812981232BFC012083000000000F9024
:1004F000DF91CF910895CF93DF93CDB7DEB784E43A
:1005000090E0FC018081DF91CF910895CF93DF933C
:10051000CDB7DEB785E490E025E430E0F901308125
:100520004091710020917300242B232BFC01208328
:100530000000DF91CF910895CF93DF93CDB7DEB761
:1005400085E490E0FC01808185E490E0FC0110826C
:100550000000DF91CF91089578941F920F92009040
:100560005F000F9211242F933F934F935F936F93EC
:100570007F938F939F93AF93BF93EF93FF93CF930B
:10058000DF93CDB7DEB740E060E383E00E9449002F
:1005900082E590E020917800FC0120830000DF914B
:1005A000CF91FF91EF91BF91AF919F918F917F91EB
:1005B0006F915F914F913F912F910F9000925F004B
:1005C0000F901F90189578941F920F9200905F00E3
:1005D0000F9211242F933F934F935F936F937F93C9
:1005E0008F939F93AF93BF93EF93FF93CF93DF933B
:1005F000CDB7DEB74FEF60E383E00E944900000013
:10060000DF91CF91FF91EF91BF91AF919F918F912A
:100610007F916F915F914F913F912F910F90009239
:100620005F000F901F90189578941F920F92009082
:100630005F000F9211248F939F93CF93DF93CDB7D9
:10064000DEB78091790090917A00019790937A00BB
:10065000809379000000DF91CF919F918F910F904F
:1006600000925F000F901F901895CF93DF93CDB746
:10067000DEB780E490E020E430E0F9013081409181
:10068000600020916200422B20916300242B232BD9
:100690002660FC0120838AE290E02AE230E0F90142
:1006A0002081322F20916400422F20916500287F05
:1006B000242B232BFC0120838BE290E02BE230E003
:1006C000F9012081322F20916600237E232BFC012B
:1006D000208389E290E027E6FC0120830000DF917F
:1006E000CF910895CF93DF93CDB7DEB700008BE2B3
:1006F00090E0FC0180818823D4F78CE290E0FC013B
:100700008081DF91CF910895CF93DF931F92CDB772
:10071000DEB7898300008BE290E0FC018081882FA6
:1007200090E080729927892BB1F38CE290E02981C7
:10073000FC01208300000F90DF91CF910895F89481
:02074000FFCFE9
:0807420000000080A018000077
:00000001FF
