S01700004763634170706C69636174696F6E322E737265635A
S11300000C942A000C943C000C943C000C94AE021A
S11300100C943C000C9475070C943C000C943C002C
S11300200C943C000C943C000C9444070C940D0775
S11300300C943C000C943C000C943C000C943C004C
S11300400C943C000C943C000C943C000C943C003C
S11300500C943C0011241FBECFE5D8E0DEBFCDBF19
S113006020E0A0E6B0E001C01D92A937B207E1F795
S11300700E94A3020C9429080C940000CF93DF93F0
S11300801F92CDB7DEB789838981882F90E00097CE
S113009019F0019789F020C04FEF60E183E00E94DE
S11300A00F014FEF64E083E00E940F014FEF68E01F
S11300B083E00E940F0110C04FEF60E283E00E94D2
S11300C00F014FEF60E483E00E940F014FEF60E8FF
S11300D083E00E940F01000000000F90DF91CF9198
S11300E00895CF93DF9300D0CDB7DEB789836A83B9
S11300F08981882F90E0009721F0019709F43EC090
S11301007AC08A81882F90E081309105B1F08230E5
S1130110910519F1892B09F06EC040E060E183E09C
S11301200E94A30140E064E083E00E94A30140E058
S113013068E083E00E94A30120C04FEF60E183E008
S11301400E94A30140E064E083E00E94A3014FEF1A
S113015068E083E00E94A30110C04FEF60E183E0F8
S11301600E94A3014FEF64E083E00E94A30140E0FA
S113017068E083E00E94A30100003DC08A81882FCB
S113018090E081309105B1F08230910519F1892B0D
S113019009F030C040E060E283E00E94A30140E047
S11301A060E483E00E94A30140E060E883E00E94F1
S11301B0A30120C04FEF60E283E00E94A30140E06E
S11301C060E483E00E94A3014FEF60E883E00E94B3
S11301D0A30110C04FEF60E283E00E94A3014FEF40
S11301E060E483E00E94A30140E060E883E00E94B1
S11301F0A3010000000000000F900F90DF91CF9149
S11302000895CF93DF931F92CDB7DEB78983898199
S11302100E94E40400000F90DF91CF910895CF93E2
S1130220DF9300D01F92CDB7DEB789836A834B83F7
S11302308B81882309F042C08A8180958A838981D1
S1130240882F90E081309105B9F0823091051CF43B
S1130250892B39F071C082309105C9F0039711F1EF
S11302606BC08AE390E02AE330E0F90130812A810F
S11302702323FC01208360C087E390E027E330E080
S1130280F90130812A812323FC01208355C084E3B2
S113029090E024E330E0F90130812A812323FC013A
S11302A020834AC081E390E021E330E0F90130810A
S11302B02A812323FC01208300003EC08981882FEA
S11302C090E081309105B9F0823091051CF4892BBE
S11302D039F032C082309105C9F0039711F12CC076
S11302E08AE390E02AE330E0F90130812A81232B6C
S11302F0FC01208321C087E390E027E330E0F9018B
S113030030812A81232BFC01208316C084E390E0F2
S113031024E330E0F90130812A81232BFC0120837E
S11303200BC081E390E021E330E0F90130812A81C0
S1130330232BFC012083000000000F900F900F90EE
S1130340DF91CF910895CF93DF9300D01F92CDB763
S1130350DEB789836A834B838B81882309F042C08B
S11303608A8180958A838981882F90E081309105E4
S1130370B9F0823091051CF4892B39F071C08230B8
S11303809105C9F0039711F16BC08BE390E02BE367
S113039030E0F90130812A812323FC01208360C0ED
S11303A088E390E028E330E0F90130812A812323B7
S11303B0FC01208355C085E390E025E330E0F9019A
S11303C030812A812323FC0120834AC082E390E008
S11303D022E330E0F90130812A812323FC012083C8
S11303E000003EC08981882F90E081309105B9F0EA
S11303F0823091051CF4892B39F032C0823091058A
S1130400C9F0039711F12CC08BE390E02BE330E0AB
S1130410F90130812A81232BFC01208321C088E348
S113042090E028E330E0F90130812A81232BFC019C
S1130430208316C085E390E025E330E0F9013081A4
S11304402A81232BFC0120830BC082E390E022E36A
S113045030E0F90130812A81232BFC012083000044
S113046000000F900F900F90DF91CF910895CF93DC
S1130470DF9300D0CDB7DEB789836A838981882F63
S113048090E08130910591F0823091051CF4892B24
S113049039F01EC08230910579F0039799F018C0A5
S11304A08BE390E02A81FC01208312C088E390E072
S11304B02A81FC0120830CC085E390E02A81FC01A1
S11304C0208306C082E390E02A81FC01208300009F
S11304D000000F900F90DF91CF910895CF93DF9399
S11304E01F92CDB7DEB789838981882F90E0813050
S11304F0910591F0823091051CF4892B39F01EC0CE
S11305008230910579F0039799F018C04FEF60E1BC
S113051081E00E940F0112C04FEF60E281E00E946F
S11305200F010CC04FEF60E481E00E940F0106C090
S11305304FEF60E881E00E940F01000000000F907F
S1130540DF91CF910895CF93DF93CDB7DEB70E94AB
S1130550450380E090E0DF91CF91089578941F9255
S11305600F9200905F000F9211242F933F934F93AB
S11305705F936F937F938F939F93AF93BF93EF9307
S1130580FF93CF93DF93CDB7DEB784E590E0FC0112
S11305908081882F90E080749927892B39F10E94FB
S11305A0E7068BE590E02BE530E0F90120812F7D13
S11305B0FC01208384E590E024E530E0F90120810A
S11305C02F7BFC0120838AE590E02AE530E0F901E5
S11305D020812062FC0120838BE590E02BE530E054
S11305E0F90120812062FC0120833AC084E590E077
S11305F0FC018081882F90E080749927892B81F5F4
S11306000E94FD060E94DC068093610080E00E9447
S1130610AE068BE590E02BE530E0F90120812F7DDB
S1130620FC01208384E590E024E530E0F901208199
S11306302064FC0120838AE590E02AE530E0F9019A
S113064020812062FC0120838BE590E02BE530E0E3
S1130650F90120812062FC0120838FEF80936000E8
S11306600000DF91CF91FF91EF91BF91AF919F91E6
S11306708F917F916F915F914F913F912F910F9047
S113068000925F000F901F901895CF92EF920F93F6
S1130690CF93DF93CDB7DEB76894CC24C6F8E12CB2
S11306A000E020E044E060E280E00E94780680E020
S11306B00E943E0081E00E943E0040E064E081E050
S11306C00E940F0187E390E027E330E0F9012081E5
S11306D02860FC01208380E00E946E0281E00E9479
S11306E06E0282E00E946E0283E00E946E027894A1
S11306F08BE590E02BE530E0F90120812F7DFC01B2
S1130700208384E590E024E530E0F9012081206431
S1130710FC0120838AE590E02AE530E0F90120819C
S11307202062FC0120838BE590E02BE530E0F901A9
S113073020812062FC0120834FEF68E081E00E9469
S1130740A30181E090E00E94B90540E068E081E007
S11307500E94A301809160008F3FE1F780916100C6
S1130760882F90E024E4289FA001299F500D112494
S113077028EE33E0CA01B9010E94A607CB01829595
S1130780807F682F81E00E94370284E690E00E9417
S1130790B905109260004FEF68E081E00E94A30168
S11307A081E090E00E94B90540E068E081E00E94A9
S11307B0A30180916100282F30E044E4429FC001EE
S11307C0439F900D11248037974194F061E080E0BD
S11307D00E94710061E081E00E94710086E40E9441
S11307E001016CE271E080E090E00E940304B2CF6A
S11307F060E080E00E94710060E081E00E9471008E
S11308000E94D804A7CFCF93DF9300D000D000D0AC
S1130810CDB7DEB76B837C838D839E8319C088E656
S113082091E09A83898305C089819A8101979A838B
S1130830898389819A81892BB9F78B819C81AD81C8
S1130840BE810197A109B1098B839C83AD83BE83CB
S11308508B819C81AD81BE81892B8A2B8B2BF9F6F0
S1130860000026960FB6F894DEBF0FBECDBFDF9111
S1130870CF910895AF92CF92DF92EF92FF920F93B0
S11308801F93CF93DF93CDB7DEB72E970FB6F894AF
S1130890DEBF0FBECDBF9A8389837C836B834D8378
S11308A03F832E8319870887FB86EA86DD86CC86FC
S11308B0AE868EE490E02EE430E0F901408151816F
S11308C029813A81242B352BFC01318320838EE44A
S11308D090E02EE430E0F90120813181306AFC019E
S11308E0318320838CE490E02CE430E0F9014081F2
S11308F051812E813F81242B352BFC0131832083B0
S11309008AE490E02AE430E0F901408151812885AD
S11309103985242B352BFC013183208388E490E036
S113092028E430E0F901408151812A853B85242B5C
S1130930352BFC013183208386E490E026E430E00B
S1130940F901408151812C853D85242B352BFC01F7
S1130950318320838D81882F90E090937800809359
S1130960770000002E960FB6F894DEBF0FBECDBF01
S1130970DF91CF911F910F91FF90EF90DF90CF9077
S1130980AF900895CF93DF93CDB7DEB74091770052
S1130990509178008EE490E02EE430E0F90120815B
S11309A0342F232BFC0120830000DF91CF91089585
S11309B0CF93DF93CDB7DEB78EE490E0FC011082D5
S11309C00000DF91CF910895AF92CF92DF92EF9222
S11309D0FF920F931F93CF93DF9300D000D01F9209
S11309E0CDB7DEB78D834FEF6CE083E00E940F013B
S11309F040E060E383E00E94A3018D81482F50E032
S1130A0020E431E0429FC001439F900D529F900D1E
S1130A101124092E000CAA0BBB0B89839A83AB8388
S1130A20BC8329813A8189819A81A12C0F2EC12C02
S1130A30FDE7DF2EF02D79018C0120E030E041E06C
S1130A4060E070EA80E190E00E943A040E94C204EF
S1130A5000000F900F900F900F900F90DF91CF91A7
S1130A601F910F91FF90EF90DF90CF90AF9008957A
S1130A70EF920F93CF93DF9300D000D000D0CDB787
S1130A80DEB789836A834B832C830D83EE8289814D
S1130A90809362008A81809363008B8180936400D9
S1130AA08C81809365008D81809366008E81809314
S1130AB06800000026960FB6F894DEBF0FBECDBFC7
S1130AC0DF91CF910F91EF900895CF93DF931F9211
S1130AD0CDB7DEB7898380916200882F90E00097BC
S1130AE019F0089761F01AC082E590E022E530E041
S1130AF0F90130812981232BFC0120830FC082E579
S1130B0090E0FC0110828CE590E02CE530E0F901E6
S1130B1030812981232BFC012083000000000F90E9
S1130B20DF91CF910895CF93DF93CDB7DEB783E5FF
S1130B3090E023E530E0F90130814091620020919A
S1130B406400242B232BFC0120830000DF91CF9130
S1130B500895CF93DF93CDB7DEB783E590E0FC0132
S1130B60808183E590E0FC0110820000DF91CF9149
S1130B700895EF920F93CF93DF93CDB7DEB7299704
S1130B800FB6F894DEBF0FBECDBF998788871C824D
S1130B901D821E821F8219821B821A82E12C00E0B0
S1130BA020E041E060E288E00E9438058091640022
S1130BB0482F50E028EE33E0429FC001439F900D40
S1130BC0529F900D11249C01990F440B550B80E00A
S1130BD094E2A4EFB0E0BC01CD010E94BA07DA01AF
S1130BE0C9019C01AD0188859985CC01A0E0B0E0E4
S1130BF0BC01CD010E949607DC01CB018C839D834F
S1130C00AE83BF838C819D81AE81BF81892F9A2F52
S1130C10AB2FBB278093700090937100A093720058
S1130C20B09373008C819D81AE81BF819927AA27DF
S1130C30BB27892B8A2B8B2BB1F08091700090916C
S1130C407100A0917200B09173000196A11DB11DB5
S1130C508093700090937100A0937200B09373001E
S1130C608C81898302C08FEF898389810E94650505
S1130C700E9493051DC08A819B8101969B838A8370
S1130C8088E590E0FC018081882F90E082709927AC
S1130C90892BB1F388E590E028E530E0F901208163
S1130CA02260FC0120838CE590E02FEFFC0120837F
S1130CB08A819B819C0140E050E08091700090917A
S1130CC07100A0917200B0917300281739074A0788
S1130CD05B0788F20E94A905000029960FB6F894D4
S1130CE0DEBF0FBECDBFDF91CF910F91EF9008957E
S1130CF0CF92EF920F93CF93DF93CDB7DEB72797C1
S1130D000FB6F894DEBF0FBECDBF89836A834B83D1
S1130D102C830D83EE82CF828981809369008A813E
S1130D2080936A008B8180936B008C8180936C002C
S1130D308D8180936D008E8180936E008F8180936E
S1130D406F00000027960FB6F894DEBF0FBECDBF2C
S1130D50DF91CF910F91EF90CF900895CF93DF93D0
S1130D601F92CDB7DEB7898380916200882F90E00F
S1130D70009719F0089761F01AC084E490E024E425
S1130D8030E0F90130812981232BFC0120830FC03D
S1130D9084E490E0FC01108283E490E023E430E0FA
S1130DA0F90130812981232BFC01208300000000FC
S1130DB00F90DF91CF910895CF93DF93CDB7DEB736
S1130DC084E490E0FC018081DF91CF910895CF937A
S1130DD0DF93CDB7DEB785E490E025E430E0F90198
S1130DE030814091690020916B00242B232BFC015E
S1130DF020830000DF91CF910895CF93DF93CDB787
S1130E00DEB785E490E0FC01808185E490E0FC019C
S1130E1010820000DF91CF91089578941F920F9271
S1130E2000905F000F9211242F933F934F935F9391
S1130E306F937F938F939F93AF93BF93EF93FF939E
S1130E40CF93DF93CDB7DEB740E060E383E00E9449
S1130E50A30182E590E020917400FC01208300004E
S1130E60DF91CF91FF91EF91BF91AF919F918F91BE
S1130E707F916F915F914F913F912F910F900092CD
S1130E805F000F901F90189578941F920F92009016
S1130E905F000F9211242F933F934F935F936F93AF
S1130EA07F938F939F93AF93BF93EF93FF93CF93CE
S1130EB0DF93CDB7DEB74FEF60E383E00E94A30179
S1130EC00000DF91CF91FF91EF91BF91AF919F917E
S1130ED08F917F916F915F914F913F912F910F90DF
S1130EE000925F000F901F90189578941F920F92B4
S1130EF000905F000F9211248F939F93CF93DF9301
S1130F00CDB7DEB7809175009091760001979093EC
S1130F107600809375000000DF91CF919F918F91AF
S1130F200F9000925F000F901F901895DB018F9334
S1130F309F930E94D907BF91AF91A29F800D911DED
S1130F40A39F900DB29F900D1124089597FB072E37
S1130F5016F4009407D077FD09D00E94E40707FC3B
S1130F6005D03EF4909581959F4F089570956195B5
S1130F707F4F0895052E97FB1EF400940E94D1071D
S1130F8057FD07D00E94F80707FC03D04EF40C94D9
S1130F90D10750954095309521953F4F4F4F5F4F66
S1130FA0089590958095709561957F4F8F4F9F4FD1
S1130FB008950E941A08A59F900DB49F900DA49FB8
S1130FC0800D911D11240895AA1BBB1B51E107C07C
S1130FD0AA1FBB1FA617B70710F0A61BB70B881FC5
S1130FE0991F5A95A9F780959095BC01CD01089554
S1130FF0A1E21A2EAA1BBB1BFD010DC0AA1FBB1F19
S1131000EE1FFF1FA217B307E407F50720F0A21B8A
S1131010B30BE40BF50B661F771F881F991F1A94F7
S113102069F760957095809590959B01AC01BD0121
S1131030CF010895A29FB001B39FC001A39F700D7B
S1131040811D1124911DB29F700D811D1124911DCC
S10910500895F894FFCF9F
S9030000FC
