:100000000C942A000C9447000C9447000C94730144
:100010000C9447000C9408030C9447000C94470080
:100020000C9447000C9447000C94D7020C94A00247
:100030000C9447000C9447000C9447000C94470024
:100040000C9447000C9447000C9447000C94470014
:100050000C94470011241FBECFE5D8E0DEBFCDBF12
:1000600010E0A0E6B0E0E0E3F7E002C005900D92FA
:10007000AA36B107D9F720E0AAE6B0E001C01D9288
:10008000AE37B207E1F70E944B010C9496030C9433
:100090000000CF93DF9300D01F92CDB7DEB78983E6
:1000A0006A834B838B81882309F042C08A818095C3
:1000B0008A838981882F90E081309105B9F0823060
:1000C00091051CF4892B39F071C082309105C9F07B
:1000D000039711F16BC08BE390E02BE330E0F90163
:1000E00030812A812323FC01208360C088E390E0D3
:1000F00028E330E0F90130812A812323FC012083A9
:1001000055C085E390E025E330E0F90130812A8194
:100110002323FC0120834AC082E390E022E330E005
:10012000F90130812A812323FC01208300003EC095
:100130008981882F90E081309105B9F08230910556
:100140001CF4892B39F032C082309105C9F0039735
:1001500011F12CC08BE390E02BE330E0F90130810A
:100160002A81232BFC01208321C088E390E028E32F
:1001700030E0F90130812A81232BFC01208316C055
:1001800085E390E025E330E0F90130812A81232BDB
:10019000FC0120830BC082E390E022E330E0F90110
:1001A00030812A81232BFC012083000000000F9066
:1001B0000F900F90DF91CF910895CF93DF9300D0F0
:1001C000CDB7DEB789836A838981882F90E081303B
:1001D000910591F0823091051CF4892B39F01EC0F5
:1001E0008230910579F0039799F018C08AE390E086
:1001F0002A81FC01208312C087E390E02A81FC0160
:1002000020830CC084E390E02A81FC01208306C097
:1002100081E390E02A81FC012083000000000F9020
:100220000F90DF91CF910895CF93DF9300D0CDB79A
:10023000DEB789836A838981882F90E081309105B8
:1002400091F0823091051CF4892B39F01EC0823068
:10025000910579F0039799F018C08BE390E02A811B
:10026000FC01208312C088E390E02A81FC012083F6
:100270000CC085E390E02A81FC01208306C082E364
:1002800090E02A81FC012083000000000F900F9075
:10029000DF91CF910895CF93DF93CDB7DEB70E9462
:1002A00084030E9468016FEF81E00E94DD0080916D
:1002B000600090916100FC018081682F81E00E94C4
:1002C000140168EE73E080E090E00E940A02EFCF34
:1002D000CF93DF93CDB7DEB778940E942903000057
:1002E000DF91CF91089578941F920F9200905F0054
:1002F0000F9211242F933F934F935F936F937F93AC
:100300008F939F93AF93BF93EF93FF93CF93DF931D
:10031000CDB7DEB784E590E0FC018081882F90E0C6
:1003200080749927892B39F10E947A028BE590E03D
:100330002BE530E0F90120812F7DFC01208384E54D
:1003400090E024E530E0F90120812F7BFC0120833F
:100350008AE590E02AE530E0F90120812062FC0185
:1003600020838BE590E02BE530E0F90120812062CD
:10037000FC0120833AC084E590E0FC018081882F55
:1003800090E080749927892B81F50E9490020E9449
:100390006F0280936B0080E00E9441028BE590E049
:1003A0002BE530E0F90120812F7DFC01208384E5DD
:1003B00090E024E530E0F90120812064FC012083F5
:1003C0008AE590E02AE530E0F90120812062FC0115
:1003D00020838BE590E02BE530E0F901208120625D
:1003E000FC0120838FEF80936A000000DF91CF91A2
:1003F000FF91EF91BF91AF919F918F917F916F91FD
:100400005F914F913F912F910F9000925F000F905D
:100410001F901895CF93DF9300D000D000D0CDB7B8
:10042000DEB76B837C838D839E8319C088E691E061
:100430009A83898305C089819A8101979A838983E8
:1004400089819A81892BB9F78B819C81AD81BE818D
:100450000197A109B1098B839C83AD83BE838B81F6
:100460009C81AD81BE81892B8A2B8B2BF9F60000F4
:1004700026960FB6F894DEBF0FBECDBFDF91CF91A9
:100480000895CF93DF931F92CDB7DEB78983809114
:100490006C00882F90E0009719F0089761F01AC05F
:1004A00084E490E024E430E0F90130812981232BB9
:1004B000FC0120830FC084E490E0FC01108283E4FF
:1004C00090E023E430E0F90130812981232BFC0105
:1004D0002083000000000F90DF91CF910895CF930B
:1004E000DF93CDB7DEB784E490E0FC018081DF913B
:1004F000CF910895CF93DF93CDB7DEB785E490E039
:1005000025E430E0F90130814091730020917500BD
:10051000242B232BFC0120830000DF91CF91089531
:10052000CF93DF93CDB7DEB785E490E0FC01808107
:1005300085E490E0FC0110820000DF91CF910895E6
:1005400078941F920F9200905F000F9211242F93C6
:100550003F934F935F936F937F938F939F93AF934B
:10056000BF93EF93FF93CF93DF93CDB7DEB740E018
:1005700060E383E00E94490082E590E020917A00E8
:10058000FC0120830000DF91CF91FF91EF91BF919B
:10059000AF919F918F917F916F915F914F913F911B
:1005A0002F910F9000925F000F901F9018957894F4
:1005B0001F920F9200905F000F9211242F933F9390
:1005C0004F935F936F937F938F939F93AF93BF935B
:1005D000EF93FF93CF93DF93CDB7DEB74FEF60E399
:1005E00083E00E9449000000DF91CF91FF91EF91DD
:1005F000BF91AF919F918F917F916F915F914F913B
:100600003F912F910F9000925F000F901F901895CF
:1006100078941F920F9200905F000F9211248F9395
:100620009F93CF93DF93CDB7DEB780917B009091FE
:100630007C00019790937C0080937B000000DF9109
:10064000CF919F918F910F9000925F000F901F901C
:100650001895CF93DF93CDB7DEB78BE290E02BE216
:1006600030E0F9012081237EFC01208380E490E0CA
:1006700020E430E0F9013081409162002091640073
:10068000422B20916500242B232BFC0120838AE23E
:1006900090E02AE230E0F90130814091660020913B
:1006A0006700242B232BFC0120838BE290E02BE2BC
:1006B00030E0F901308120916800232BFC01208378
:1006C00089E290E027E6FC01208380E490E020E4CA
:1006D00030E0F90120812560FC0120838AE290E06E
:1006E0002AE230E0F90120812B7FFC0120838AE29D
:1006F00090E02AE230E0F90120812C7FFC01208388
:100700000000DF91CF910895CF93DF93CDB7DEB78F
:1007100080916000909161002CE230E0F90120812D
:10072000FC0120830000DF91CF910895F894FFCF62
:0A0730007D0000000080C0180000EA
:00000001FF
