:100000000C942A000C943C000C943C000C94E702E5
:100010000C943C000C946D050C943C000C943C003A
:100020000C943C000C943C000C943C050C9405058D
:100030000C943C000C943C000C943C000C943C0050
:100040000C943C000C943C000C943C000C943C0040
:100050000C943C0011241FBECFE5D8E0DEBFCDBF1D
:1000600020E0A0E6B0E001C01D92A837B207E1F79A
:100070000E94D2010C9421060C940000CF93DF93D0
:1000800000D01F92CDB7DEB789836A834B838B8103
:10009000882309F042C08A8180958A838981882FCC
:1000A00090E081309105B9F0823091051CF4892BE4
:1000B00039F071C082309105C9F0039711F16BC01E
:1000C0008AE390E02AE330E0F90130812A8123239A
:1000D000FC01208360C087E390E027E330E0F90172
:1000E00030812A812323FC01208355C084E390E0E2
:1000F00024E330E0F90130812A812323FC012083AD
:100100004AC081E390E021E330E0F90130812A81A7
:100110002323FC01208300003EC08981882F90E0CA
:1001200081309105B9F0823091051CF4892B39F0AA
:1001300032C082309105C9F0039711F12CC08AE3D7
:1001400090E02AE330E0F90130812A81232BFC0181
:10015000208321C087E390E027E330E0F90130817C
:100160002A81232BFC01208316C084E390E024E342
:1001700030E0F90130812A81232BFC0120830BC060
:1001800081E390E021E330E0F90130812A81232BE3
:10019000FC012083000000000F900F900F90DF9172
:1001A000CF910895CF93DF9300D01F92CDB7DEB7E4
:1001B00089836A834B838B81882309F042C08A81BB
:1001C00080958A838981882F90E081309105B9F0EC
:1001D000823091051CF4892B39F071C08230910571
:1001E000C9F0039711F16BC08BE390E02BE330E093
:1001F000F90130812A812323FC01208360C088E338
:1002000090E028E330E0F90130812A812323FC01CA
:10021000208355C085E390E025E330E0F90130818B
:100220002A812323FC0120834AC082E390E022E359
:1002300030E0F90130812A812323FC012083000072
:100240003EC08981882F90E081309105B9F08230DD
:1002500091051CF4892B39F032C082309105C9F028
:10026000039711F12CC08BE390E02BE330E0F90110
:1002700030812A81232BFC01208321C088E390E078
:1002800028E330E0F90130812A81232BFC0120830F
:1002900016C085E390E025E330E0F90130812A8142
:1002A000232BFC0120830BC082E390E022E330E0AB
:1002B000F90130812A81232BFC01208300000000FA
:1002C0000F900F900F90DF91CF910895CF93DF9310
:1002D00000D0CDB7DEB789836A838981882F90E00B
:1002E0008130910591F0823091051CF4892B39F011
:1002F0001EC08230910579F0039799F018C08BE306
:1003000090E02A81FC01208312C088E390E02A81DA
:10031000FC0120830CC085E390E02A81FC0120834E
:1003200006C082E390E02A81FC01208300000000E7
:100330000F900F90DF91CF910895CF93DF931F928D
:10034000CDB7DEB789838981882F90E08130910510
:1003500091F0823091051CF4892B39F01EC0823057
:10036000910579F0039799F018C04FEF60E181E0B3
:100370000E943E0012C04FEF60E281E00E943E000A
:100380000CC04FEF60E481E00E943E0006C04FEFDA
:1003900060E881E00E943E00000000000F90DF91C5
:1003A000CF910895CF93DF93CDB7DEB70E94DD01E3
:1003B00080E090E0DF91CF910895CF93DF93CDB7A8
:1003C000DEB783E00E94410280E00E949D0181E04F
:1003D0000E949D0182E00E949D0183E00E949D0198
:1003E0004FEF68E081E00E943E0040E064E081E081
:1003F0000E943E0078940E9498024FEF68E081E0EE
:100400000E94D20081E090E00E94B10340E068E0E9
:1004100081E00E94D200809162008F3FE1F78091DD
:10042000600090916100FC018081882F90E024E4BD
:10043000289FA001299F500D112428EE33E0CA0106
:10044000B9010E949E05CB018295807F682F81E0D3
:100450000E94660188EE93E00E94B1034FEF68E0CE
:1004600081E00E94D20081E090E00E94B10340E070
:1004700068E081E00E94D2000E94DD0210926200DA
:10048000CACFCF92EF920F93CF93DF931F92CDB746
:10049000DEB789836894CC24C6F8E12C00E020E024
:1004A00044E060E280E00E9470048981823051F46F
:1004B00084E590E024E530E0F90120812F7BFC0108
:1004C00020830CC08981833049F484E590E024E5E1
:1004D00030E0F90120812064FC01208300000F90AE
:1004E000DF91CF910F91EF90CF900895CF93DF934D
:1004F000CDB7DEB784E590E0FC018081882F90E0E5
:1005000080749927892B11F083E001C082E0DF918C
:10051000CF910895CF93DF931F92CDB7DEB7898334
:1005200089810E94410200000F90DF91CF910895D0
:10053000CF93DF93CDB7DEB78BE590E02BE530E0CE
:10054000F90120812062FC0120830000DF91CF911E
:100550000895CF93DF93CDB7DEB78BE590E02BE521
:1005600030E0F90120812F7DFC0120830000DF9124
:10057000CF910895CF93DF9300D0CDB7DEB79A83A4
:1005800089830E94D404282F89819A81FC012083C9
:1005900080E00E94A60400000F900F90DF91CF91A1
:1005A0000895CF93DF93CDB7DEB70E94A9020E94D2
:1005B000F5040000DF91CF910895CF93DF93CDB77D
:1005C000DEB70E94DF040000DF91CF910895789498
:1005D0001F920F9200905F000F9211242F933F9370
:1005E0004F935F936F937F938F939F93AF93BF933B
:1005F000EF93FF93CF93DF93CDB7DEB70E947602E0
:10060000823081F40E94D10280916000909161005B
:100610000E94BA0283E00E948A0260EF81E00E9499
:100620006601FFCF0E947602833029F40E94DD022A
:1006300082E00E948A020000DF91CF91FF91EF914A
:10064000BF91AF919F918F917F916F915F914F91EA
:100650003F912F910F9000925F000F901F9018957F
:10066000EF920F93CF93DF9300D000D000D0CDB79F
:10067000DEB789836A834B832C830D83EE82898165
:10068000809363008A81809364008B8180936500EE
:100690008C81809366008D81809367008E8180932A
:1006A0006900000026960FB6F894DEBF0FBECDBFDE
:1006B000DF91CF910F91EF900895CF93DF931F9229
:1006C000CDB7DEB7898380916300882F90E00097D3
:1006D00019F0089761F01AC082E590E022E530E059
:1006E000F90130812981232BFC0120830FC082E591
:1006F00090E0FC0110828CE590E02CE530E0F901FF
:1007000030812981232BFC012083000000000F9001
:10071000DF91CF910895CF93DF93CDB7DEB783E517
:1007200090E023E530E0F9013081409163002091B1
:100730006500242B232BFC0120830000DF91CF9147
:100740000895CF93DF93CDB7DEB783E590E0FC014A
:10075000808183E590E0FC0110820000DF91CF9161
:100760000895EF920F93CF93DF93CDB7DEB729971C
:100770000FB6F894DEBF0FBECDBF998788871C8265
:100780001D821E821F8219821B821A82E12C00E0C8
:1007900020E041E060E288E00E9430038091650043
:1007A000482F50E028EE33E0429FC001439F900D58
:1007B000529F900D11249C01990F440B550B80E022
:1007C00094E2A4EFB0E0BC01CD010E94B205DA01D1
:1007D000C9019C01AD0188859985CC01A0E0B0E0FC
:1007E000BC01CD010E948E05DC01CB018C839D8371
:1007F000AE83BF838C819D81AE81BF81892F9A2F6B
:10080000AB2FBB278093710090937200A09373006D
:10081000B09374008C819D81AE81BF819927AA27F6
:10082000BB27892B8A2B8B2BB1F080917100909183
:100830007200A0917300B09174000196A11DB11DCA
:100840008093710090937200A0937300B093740032
:100850008C81898302C08FEF898389810E945D0327
:100860000E948B031DC08A819B8101969B838A8392
:1008700088E590E0FC018081882F90E082709927C4
:10088000892BB1F388E590E028E530E0F90120817B
:100890002260FC0120838CE590E02FEFFC01208397
:1008A0008A819B819C0140E050E080917100909191
:1008B0007200A0917300B0917400281739074A079D
:1008C0005B0788F20E94A103000029960FB6F894F6
:1008D000DEBF0FBECDBFDF91CF910F91EF90089596
:1008E000CF92EF920F93CF93DF93CDB7DEB72797D9
:1008F0000FB6F894DEBF0FBECDBF89836A834B83EA
:100900002C830D83EE82CF82898180936A008A8155
:1009100080936B008B8180936C008C8180936D0041
:100920008D8180936E008E8180936F008F81809384
:100930007000000027960FB6F894DEBF0FBECDBF43
:10094000DF91CF910F91EF90CF900895CF93DF93E8
:100950001F92CDB7DEB7898380916300882F90E026
:10096000009719F0089761F01AC084E490E024E43D
:1009700030E0F90130812981232BFC0120830FC055
:1009800084E490E0FC01108283E490E023E430E012
:10099000F90130812981232BFC0120830000000014
:1009A0000F90DF91CF910895CF93DF93CDB7DEB74E
:1009B00084E490E0FC018081DF91CF910895CF9392
:1009C000DF93CDB7DEB785E490E025E430E0F901B0
:1009D000308140916A0020916C00242B232BFC0174
:1009E00020830000DF91CF910895CF93DF93CDB79F
:1009F000DEB785E490E0FC01808185E490E0FC01B5
:100A000010820000DF91CF91089578941F920F9289
:100A100000905F000F9211242F933F934F935F93A9
:100A20006F937F938F939F93AF93BF93EF93FF93B6
:100A3000CF93DF93CDB7DEB740E060E383E00E9461
:100A4000D20082E590E020917500FC012083000037
:100A5000DF91CF91FF91EF91BF91AF919F918F91D6
:100A60007F916F915F914F913F912F910F900092E5
:100A70005F000F901F90189578941F920F9200902E
:100A80005F000F9211242F933F934F935F936F93C7
:100A90007F938F939F93AF93BF93EF93FF93CF93E6
:100AA000DF93CDB7DEB74FEF60E383E00E94D20063
:100AB0000000DF91CF91FF91EF91BF91AF919F9196
:100AC0008F917F916F915F914F913F912F910F90F7
:100AD00000925F000F901F90189578941F920F92CC
:100AE00000905F000F9211248F939F93CF93DF9319
:100AF000CDB7DEB780917600909177000197909303
:100B00007700809376000000DF91CF919F918F91C5
:100B10000F9000925F000F901F901895DB018F934C
:100B20009F930E94D105BF91AF91A29F800D911D0F
:100B3000A39F900DB29F900D1124089597FB072E4F
:100B400016F4009407D077FD09D00E94DC0507FC5D
:100B500005D03EF4909581959F4F089570956195CD
:100B60007F4F0895052E97FB1EF400940E94C9053F
:100B700057FD07D00E94F00507FC03D04EF40C94FB
:100B8000C90550954095309521953F4F4F4F5F4F88
:100B9000089590958095709561957F4F8F4F9F4FE9
:100BA00008950E941206A59F900DB49F900DA49FDA
:100BB000800D911D11240895AA1BBB1B51E107C094
:100BC000AA1FBB1FA617B70710F0A61BB70B881FDD
:100BD000991F5A95A9F780959095BC01CD0108956C
:100BE000A1E21A2EAA1BBB1BFD010DC0AA1FBB1F31
:100BF000EE1FFF1FA217B307E407F50720F0A21BA3
:100C0000B30BE40BF50B661F771F881F991F1A940F
:100C100069F760957095809590959B01AC01BD0139
:100C2000CF010895A29FB001B39FC001A39F700D93
:100C3000811D1124911DB29F700D811D1124911DE4
:060C40000895F894FFCFB7
:00000001FF
